{
  "abi": [
    {
      "inputs": [],
      "name": "MIN_LOCK_TIME",
      "outputs": [
        {
          "internalType": "uint256",
          "name": "",
          "type": "uint256"
        }
      ],
      "stateMutability": "view",
      "type": "function"
    },
    {
      "inputs": [
        {
          "internalType": "uint256",
          "name": "_unlockDate",
          "type": "uint256"
        }
      ],
      "name": "lock",
      "outputs": [],
      "stateMutability": "payable",
      "type": "function"
    },
    {
      "inputs": [
        {
          "internalType": "address",
          "name": "",
          "type": "address"
        }
      ],
      "name": "lockIds",
      "outputs": [
        {
          "internalType": "uint256",
          "name": "",
          "type": "uint256"
        }
      ],
      "stateMutability": "view",
      "type": "function"
    },
    {
      "inputs": [
        {
          "internalType": "address",
          "name": "",
          "type": "address"
        },
        {
          "internalType": "uint256",
          "name": "",
          "type": "uint256"
        }
      ],
      "name": "locks",
      "outputs": [
        {
          "internalType": "uint256",
          "name": "balance",
          "type": "uint256"
        },
        {
          "internalType": "uint256",
          "name": "lockDate",
          "type": "uint256"
        },
        {
          "internalType": "uint256",
          "name": "unlockDate",
          "type": "uint256"
        },
        {
          "internalType": "bool",
          "name": "isValid",
          "type": "bool"
        }
      ],
      "stateMutability": "view",
      "type": "function"
    },
    {
      "inputs": [
        {
          "internalType": "uint256",
          "name": "id",
          "type": "uint256"
        }
      ],
      "name": "unlock",
      "outputs": [],
      "stateMutability": "nonpayable",
      "type": "function"
    },
    {
      "inputs": [],
      "name": "userCount",
      "outputs": [
        {
          "internalType": "uint256",
          "name": "",
          "type": "uint256"
        }
      ],
      "stateMutability": "view",
      "type": "function"
    }
  ],
  "bytecode": {
    "object": "0x608060405234801561001057600080fd5b506104a5806100206000396000f3fe6080604052600436106100555760003560e01c806307973ccf1461005a5780633ff03207146100835780636198e3391461009a578063802c0a1c146100bc578063b425f802146100e9578063dd46706414610159575b600080fd5b34801561006657600080fd5b5061007060005481565b6040519081526020015b60405180910390f35b34801561008f57600080fd5b506100706203f48081565b3480156100a657600080fd5b506100ba6100b53660046103a6565b61016c565b005b3480156100c857600080fd5b506100706100d73660046103db565b60026020526000908152604090205481565b3480156100f557600080fd5b506101376101043660046103fd565b60016020818152600093845260408085209091529183529120805491810154600282015460039092015490919060ff1684565b604080519485526020850193909352918301521515606082015260800161007a565b6100ba6101673660046103a6565b610255565b3360009081526001602090815260408083208484529091529020600381015460ff166101d15760405162461bcd60e51b815260206004820152600f60248201526e1259081a5cc81b9bdd081d985b1a59608a1b60448201526064015b60405180910390fd5b42816002015410156102175760405162461bcd60e51b815260206004820152600f60248201526e135bdb995e481a5cc81b1bd8dad959608a1b60448201526064016101c8565b60038101805460ff191690558054604051339180156108fc02916000818181858888f19350505050158015610250573d6000803e3d6000fd5b505050565b4281116102b25760405162461bcd60e51b815260206004820152602560248201527f556e6c6f636b2074696d65206d757374206265203e20626c6f636b2e74696d6560448201526407374616d760dc1b60648201526084016101c8565b6102bf426203f48061043d565b81116103195760405162461bcd60e51b815260206004820152602360248201527f556e6c6f636b2074696d65206d757374206265203e204d494e5f4c4f434b5f54604482015262494d4560e81b60648201526084016101c8565b33600081815260026020818152604080842080548251608081018452348152428186019081528185018a81526001606084018181528b8b52818952878b20868c528952968a2093518455915191830191909155518187015592516003909301805460ff19169315159390931790925594845291905282549092909161039d83610456565b91905055505050565b6000602082840312156103b857600080fd5b5035919050565b80356001600160a01b03811681146103d657600080fd5b919050565b6000602082840312156103ed57600080fd5b6103f6826103bf565b9392505050565b6000806040838503121561041057600080fd5b610419836103bf565b946020939093013593505050565b634e487b7160e01b600052601160045260246000fd5b8082018082111561045057610450610427565b92915050565b60006001820161046857610468610427565b506001019056fea2646970667358221220c752dbc41e2da9f5e58fc365d457f393413f49fdc3da253a3ebbc79bf25ba62764736f6c63430008110033",
    "linkReferences": {}
  },
  "methodIdentifiers": {
    "MIN_LOCK_TIME()": "3ff03207",
    "lock(uint256)": "dd467064",
    "lockIds(address)": "802c0a1c",
    "locks(address,uint256)": "b425f802",
    "unlock(uint256)": "6198e339",
    "userCount()": "07973ccf"
  },
  "id": 14
}