{
  "abi": [
    {
      "inputs": [],
      "stateMutability": "nonpayable",
      "type": "constructor"
    },
    {
      "inputs": [
        {
          "internalType": "address",
          "name": "user",
          "type": "address"
        }
      ],
      "name": "deleteUser",
      "outputs": [],
      "stateMutability": "nonpayable",
      "type": "function"
    },
    {
      "inputs": [],
      "name": "deposit",
      "outputs": [],
      "stateMutability": "payable",
      "type": "function"
    },
    {
      "inputs": [],
      "name": "owner",
      "outputs": [
        {
          "internalType": "address",
          "name": "",
          "type": "address"
        }
      ],
      "stateMutability": "view",
      "type": "function"
    },
    {
      "inputs": [
        {
          "internalType": "address",
          "name": "user",
          "type": "address"
        }
      ],
      "name": "registered",
      "outputs": [],
      "stateMutability": "nonpayable",
      "type": "function"
    },
    {
      "inputs": [
        {
          "internalType": "address",
          "name": "",
          "type": "address"
        }
      ],
      "name": "registeredUsers",
      "outputs": [
        {
          "internalType": "bool",
          "name": "",
          "type": "bool"
        }
      ],
      "stateMutability": "view",
      "type": "function"
    },
    {
      "inputs": [
        {
          "internalType": "uint256",
          "name": "amount",
          "type": "uint256"
        }
      ],
      "name": "withdrawal",
      "outputs": [],
      "stateMutability": "nonpayable",
      "type": "function"
    }
  ],
  "bytecode": {
    "object": "0x608060405234801561001057600080fd5b50600080546001600160a01b031916331790556102e2806100326000396000f3fe6080604052600436106100555760003560e01c80630e50cee51461005a5780635c60f2261461009f578063835fc6ca146100dd5780638da5cb5b146100fd578063b2dd5c0714610135578063d0e30db014610177575b600080fd5b34801561006657600080fd5b5061008a610075366004610263565b60016020526000908152604090205460ff1681565b60405190151581526020015b60405180910390f35b3480156100ab57600080fd5b506100db6100ba366004610263565b6001600160a01b03166000908152600160205260409020805460ff19169055565b005b3480156100e957600080fd5b506100db6100f8366004610293565b61017f565b34801561010957600080fd5b5060005461011d906001600160a01b031681565b6040516001600160a01b039091168152602001610096565b34801561014157600080fd5b506100db610150366004610263565b6001600160a01b03166000908152600160208190526040909120805460ff19169091179055565b6100db610218565b3360009081526001602052604090205460ff1661019b57600080fd5b806127108111156101e65760405162461bcd60e51b81526020600482015260116024820152704f6e6c79206c657373207468612031306b60781b604482015260640160405180910390fd5b604051339083156108fc029084906000818181858888f19350505050158015610213573d6000803e3d6000fd5b505050565b3360009081526001602052604090205460ff1661023457600080fd5b60405133903480156108fc02916000818181858888f19350505050158015610260573d6000803e3d6000fd5b50565b60006020828403121561027557600080fd5b81356001600160a01b038116811461028c57600080fd5b9392505050565b6000602082840312156102a557600080fd5b503591905056fea264697066735822122084d7dd3f4f98897570f3a3b1c112de4322576adfdf9b2cfbbfec611e662c3fed64736f6c63430008110033",
    "linkReferences": {}
  },
  "methodIdentifiers": {
    "deleteUser(address)": "5c60f226",
    "deposit()": "d0e30db0",
    "owner()": "8da5cb5b",
    "registered(address)": "b2dd5c07",
    "registeredUsers(address)": "0e50cee5",
    "withdrawal(uint256)": "835fc6ca"
  },
  "id": 14
}